:020000040800F2
:1000000000040020E1010008D13D0008D13D0008B6
:10001000D13D0008D13D0008D13D0008D13D000888
:10002000D13D0008D13D0008D13D0008E143000862
:10003000D13D0008D13D0008D13D0008D13D000868
:10004000D13D0008D13D0008D13D0008D13D000858
:10005000D13D0008D13D0008D13D0008D13D000848
:10006000D13D0008D13D0008D13D0008D13D000838
:10007000D13D0008D13D0008D13D0008D13D000828
:10008000D13D0008D13D0008D13D0008D13D000818
:10009000414E0008D13D0008D13D0008D13D000887
:1000A000D13D0008D13D0008D13D0008D13D0008F8
:1000B000814D0008D13D0008D13D0008D13D000828
:1000C000D13D0008D13D0008D13D0008D13D0008D8
:1000D000D13D0008D13D0008D13D0008D13D0008C8
:1000E000D13D0008D13D0008D13D0008D13D0008B8
:1000F000D13D0008D13D0008D13D0008D13D0008A8
:10010000D13D0008D13D0008D13D0008D13D000897
:10011000D13D0008D13D0008D13D0008D13D000887
:10012000D13D0008D13D0008D13D0008D13D000877
:10013000D13D0008D13D0008D13D0008D13D000867
:10014000D13D0008D13D0008D13D0008D13D000857
:10015000D13D0008D13D0008D13D0008D13D000847
:0C016000C154000895010008710100085E
:1001700010B5054C237833B9044B13B10448AFF3E1
:1001800000800123237010BD700A002000000000D1
:10019000806400080C4B43B10C4810B50C49AFF318
:1001A00000800C48036823B910BD0A48036833B9BE
:1001B0007047094B002BF7D0BDE810401847064B9D
:1001C000002BF5D0184700BF000000008064000835
:1001D000740A00206C0A00200000000000000000EB
:1001E00072B6264880F3098825484EF60851CEF2AB
:1001F00000010860022080F31488BFF36F8F03F0C2
:10020000AFFD05F0FDF84FF055301E491E4A9142F2
:100210003CBF41F8040BFAE71C49184A91423CBF25
:1002200041F8040BFAE71A491A4A1B4B9A423EBF9F
:1002300051F8040B42F8040BF8E700201749184A5C
:1002400091423CBF41F8040BFAE703F0A1FD03F033
:100250008FFD144C144DAC4203DA54F8041B88474C
:10026000F9E700F0EDFD114C114DAC4203DA54F802
:10027000041B8847F9E703F083BD00000006002057
:1002800000000008000000200004002000040020FE
:1002900080640008000600206C0A0020700A00201C
:1002A000DC0E0020600100086801000868010008F9
:1002B0006C010008000000000000000000000000C9
:1002C0002DE9F04FC1F80CD0C3689D46BDE8F08F12
:1002D000002383F311882846A047002003F0D8FFAD
:1002E00003F056FF00DFFEE7000000000000000002
:1002F00038B52A4C022220464FF4007104F008FD64
:10030000204602224FF4807104F002FD20460222B2
:10031000802104F0FDFC224D20460222402104F001
:10032000F7FC20460222202104F0F2FC284602229B
:100330004FF4806104F0ECFC204602224FF480610F
:1003400004F0E6FC204602224FF4006104F0E0FCD9
:10035000284602224FF4007104F0DAFC28460222FB
:100360004FF4807104F0D4FC204602224FF4004187
:1003700004F0CEFC204602224FF4804104F0C8FC79
:10038000204602224FF4005104F0C2FC2046BDE892
:10039000384002224FF4805104F0BABC000C0140F6
:1003A0000008014000000000000000000000000004
:1003B00038B5FFF79DFF032240211E4804F0A8FC3A
:1003C000032204211B4804F0A3FC03221021194836
:1003D00004F09EFC03222021164804F099FC03221D
:1003E0000221144804F094FC03220821114804F06F
:1003F0008FFC032280210F4804F08AFC0322012194
:100400000C4804F085FC00231A460B480B491A548B
:100410005A5401330E2BFAD10225094A094C13789C
:100420004FF47A7043F002031370656103F038FFF4
:10043000256138BD000801408C0A00209A0A00207E
:10044000790C0020000C01400000000000000000BA
:100450002DE9F843904E00253746904CEBB2013B16
:100460000C2B0ED8DFE813F01A0025002E00370001
:100470004000BD00C800D300DC00E500F000FB0038
:100480000601DFF8308206224FF40071404604F086
:100490003FFC4FF40073C8F814302EE0DFF81482EC
:1004A00006224FF48071404604F032FC4FF4807312
:1004B000F1E7DFF8008206228021404604F028FCA4
:1004C0008023E8E7DFF8EC8106224021404604F073
:1004D0001FFC4023DFE7DFF8DC81062220214046B5
:1004E00004F016FC2023D6E706224FF48061204654
:1004F00004F00EFC4FF480636361012003F0D0FE32
:10050000A368A2686FEA931312F0040F14BF0022CD
:10051000022203F001031343A26812F0100F14BF6C
:10052000002204221343A26812F0200F14BF0022FD
:1005300008221343A26812F0020F14BF00221022F7
:100540001343A26812F0080F14BF002220221343A5
:10055000A26812F0800F14BF002240221343A26849
:1005600012F0010F14BF00226FF07F021343AA5D47
:10057000DBB29A4221D0DFF83481AB5598F80030D5
:10058000C3B1DFF8349199F80030D90702D5444857
:1005900002F08EFD99F80030DA0704D598F80010C3
:1005A000404802F085FD99F80030DB0702D53E484F
:1005B00002F07EFD012388F800300135FFF798FE38
:1005C0000E2D7FF44BAF394A13783BB1013BDBB2C0
:1005D0001370002B59D0022003F062FE0120BDE809
:1005E000F883DFF8D08006224FF48061404604F0A3
:1005F0008FFB4FF480634EE7DFF8B88006224FF49C
:100600000061404604F084FB4FF4006343E7062298
:100610004FF40071204604F07BFB4FF400736BE74E
:1006200006224FF48071204604F072FB4FF4807371
:1006300062E7DFF8808006224FF40041404604F074
:1006400067FB4FF4004326E7DFF8688006224FF48B
:100650008041404604F05CFB4FF480431BE7DFF829
:10066000548006224FF40051404604F051FB4FF4F1
:10067000005310E7DFF83C8006224FF480514046DB
:1006800004F046FB4FF4805305E7094AF95C99549E
:1006900001330E2BFAD1A1E79A0A0020000801408D
:1006A00039560008435600088B5F000800060020FA
:1006B0008C0A0020000C0140790C00200000000092
:1006C000014B185C704700BF8C0A0020000000003E
:1006D000F8B50E4802F0ECFC00240D4F0D4E0E4D07
:1006E0002146384602F0E4FC304602F0E1FC285D89
:1006F00002F0DEF90146094802F0DAFC013408484C
:1007000002F0D6FC0E2CEBD1F8BD00BF1C56000841
:1007100043560008405600088C0A00203356000853
:100720008B5F0008000000000000000000000000D7
:100730004FF40052034B10F0020F14BF5A611A61BC
:10074000704700BF001001400000000000000000E2
:10075000032913D005D801292DD002290CD000205F
:100760007047212910D02229F9D1042BF7D8DFE8CE
:1007700003F0261A1C1E200012487047032AEED8E8
:10078000114800EBC2007047042BEED8DFE803F0FD
:100790001503050709000D4870470D4870470D48BF
:1007A00070470D4870470D4870470D4870470D4819
:1007B00070470D4870470D4870470D4870470D4809
:1007C000704700BFF856000840590008205800083C
:1007D0006C560008B8560008A85800087C58000855
:1007E0008C560008F0560008EC580008F458000831
:1007F000AC570008F457000800000000000000009B
:100800007047000000000000000000000000000031
:100810002DE9F0411F46C36804460D4616460BB14C
:1008200003F0BEFB3B46324629462046BDE8F04178
:1008300003F076BB00000000000000000000000094
:1008400038B590F87430044603F07F02212A40F056
:10085000928013F0800346D0002B00F08C8090F83B
:100860007530022B3AD0032B2ED0012B40F0838021
:1008700090F87830042B6FD8DFE803F003070D0FF2
:1008800003004A4BA366102302E0494B836605230D
:10089000E366002363E0474BF4E790F87700012814
:1008A00001D0002038BD94F87630022B05D0032B00
:1008B000F7D1414A1370A26603E03F4A1370032345
:1008C000A266E366002307E0B0F87830002B52D12F
:1008D0003A4A82660120E066236738BD384B012022
:1008E000A366E066EEE790F875300A2B3AD00B2B42
:1008F00008D0092B3FD190F878300BB1042B3AD1B6
:10090000304BECE7B0F8783033BB90F876502B4B97
:10091000002D14BF0121002119702B4B1A7861F3AF
:10092000C7121A7018D1264B1A78AAB1202282F366
:1009300011884FF4FA611B78244A59434FF47A73B3
:1009400001F2E731B1FBF3F1890089B22346204877
:10095000FFF75EFF85F311880023A366E366236734
:10096000012038BD184990F877200D78144BED0917
:100970001A70DAD0F0E740F28163B4F874209A423A
:100980008FD194F87920616894F878304D6843EA03
:10099000022394F8771094F876202046A847002880
:1009A0003FF47FAF4368A366036871E79A0B0020AA
:1009B000C00B0020040B0020680B00200206002062
:1009C000800B0020980B0020A40C0020610A000876
:1009D000840B002000000000000000000000000068
:1009E00013B52023044683F311880E4A034664217D
:1009F0000D48FFF70DFFA3695B691B6813B10B4836
:100A000003F05EFD01A9094803F04AFD024620B14A
:100A100010230321204603F073FE002383F3118883
:100A200002B010BD610B0008F00A0020A80A0020E7
:100A300013B5046B2378042B0DD123891B070AD42B
:100A400001A9064803F02CFD024620B11023032122
:100A5000204603F055FE02B010BD00BFA80A0020DA
:100A600038B50446202383F311880378042B03D080
:100A7000002383F3118838BD104B1B78DB09F7D1B5
:100A80000F4D2A78002AF3D003899B0704D408234A
:100A90000C4A012103F034FE4FF4FA612B780A4A24
:100AA00059434FF47A7301F2E731B1FBF3F1890056
:100AB00089B223460548FFF7ABFED9E7A40C002016
:100AC000800B00209A0B0020610A0008840B002094
:100AD000032938B504460D4622D0042924D0022922
:100AE0002CD1202383F31188154A012103F0D0FD76
:100AF00029462046134A03F0CBFD2046124A032123
:100B000003F0C6FD2046114A042103F0C1FD104A3E
:100B10000521204603F0BCFD002383F3118838BD76
:100B2000BDE8384003F004B902F0FAF803F008F920
:100B300000F0B6FDBDE83840FFF7FABD38BD00BF94
:100B400088570008FC5700084856000894560008CB
:100B500084580008000000000000000000000000B1
:100B600037B52023044683F311880378042B0AD079
:100B70002346134A64211348FFF74AFE002383F3F8
:100B8000118803B030BD038913F00805F0D10E4879
:100B900003F0F6FC0028EBD001A90B4803F080FC21
:100BA0002B46024601990144881A0F2805D91023C3
:100BB0000321204603F0A4FDDAE701F8013BF3E747
:100BC000610B0008F00A0020A80A002000000000C5
:100BD000704700000000000000000000000000005E
:100BE000704700000000000000000000000000004E
:100BF000704700000000000000000000000000003E
:100C0000704700000000000000000000000000002D
:100C100073B54FF480560546124C06224FF48051AE
:100C2000204604F075F8666140F6B83003F038FBF2
:100C300028460D4903F014FD2046002431460222C7
:100C400004F066F8094B1022DC60094B0195009313
:100C500008490423084803F00BFC084BDC6002B091
:100C600070BD00BF0008014060590008840B0020DF
:100C7000310A0008040B0020A80A0020F00A002016
:100C800010B5064C1E20236C43F01003236403F0C0
:100C900007FB236C23F01003236410BD005C0040AD
:100CA000014B1878704700BF980B0020000000002F
:100CB00010B52022044682F311881E4B19780429AE
:100CC0004FF0000102D081F3118810BD81F311882B
:100CD000194991F9001000291DDA82F311881A8947
:100CE000910604D51B6A58690C3003F0E9FA102309
:100CF000224605210F4803F003FD002383F31188EA
:100D000022460E4B04F1100152F8040B8A4243F8BC
:100D1000040BF9D110BD82F311881A89920704D50A
:100D20001B6958690C3003F0CBFA082322460121D5
:100D3000E0E700BF180E0020A40C00209A0B002052
:100D400010B50246202383F3118808480024017857
:100D5000042902D084F3118810BD84F3118883F331
:100D600011880523022103F0CBFCF3E7180E0020C5
:100D700007B50346202282F311880A480178042926
:100D800005D0002383F3118803B05DF804FB022231
:100D9000ADF805308DF80420032301AA03F0B0FC60
:100DA000EFE700BF180E0020000000000000000068
:100DB00007B52023024683F31188094801780429E6
:100DC00005D0002383F3118803B05DF804FB0323EF
:100DD000ADF8052001AA8DF8043003F091FCF0E78E
:100DE000180E0020000000000000000000000000BD
:100DF00008B50146202383F31188094B1B78042B87
:100E00004FF0000303D083F31188184608BD83F325
:100E100011880122034803F093FB40B208BD00BFD4
:100E2000180E0020A80A00200000000000000000AA
:100E30000846FFF7DDBF00000000000000000000D2
:100E400070B503F005FB204D02F0D2FF1E48FFF7FE
:100E5000DFFE1E49002002F01BF92C462B7864208F
:100E6000042B20D103F01CFA194802F021F900F0FC
:100E70007FFC184800F00CFC02F052FF164802F00C
:100E800017F9164D104E2378052B09D1284602F08C
:100E90000FF92378052B09D001F06AFD02F0D0FA92
:100EA00000F09EFCEFE703F0FBF9D7E701F008FF45
:100EB000B4F87C309B07ECD501F01AFF0028E8D08D
:100EC0003046FFF7DDFEE4E7180E0020310E000883
:100ED000705900081C06002081590008925900082A
:100EE000022906D1837823B1024AD36883F0020332
:100EF000D3607047000C01400000000000000000BB
:100F00000120704700000000000000000000000009
:100F100001207047000000000000000000000000F9
:100F200008B5FFF7F5FF08BD000000000000000055
:100F300008B501F07DF84FF4FA7003F0B1F9BDE89F
:100F4000084001F055BF0000000000000000000054
:100F500037B503880546ADF80430019801F080FCF0
:100F60000199C0B200F04CF929460446FFF7D8FFBA
:100F700008B90024C0E02946204600F051FB0028B3
:100F8000F7D045F614439C4200F2DE8045F602435A
:100F90009C4221D2B4F5B84F0CD045F601439C4297
:100FA0000ED00122894B1A705A702846FFF7A8FF0D
:100FB0000446A1E0AB78002BDBD0FFF7B9FFD8E700
:100FC000AB78002BD5D0824A8248137843F00103D6
:100FD000137002F06DF8CCE7AB78002BE5D001F090
:100FE0008FFD08B901F074FD01F0AAFDA4F5B84425
:100FF000794B033C1880112C0AD8DFE804F0131752
:101000001B1F23272B2F33373B3F43474B4F535750
:101010001A7842F001021A70187801F099FD01F077
:1010200007F8A6E71A7842F00202F4E71A7842F0CD
:101030000402F0E71A7842F00802ECE71A7842F06E
:101040001002E8E71A7842F02002E4E71A7842F04A
:101050004002E0E71A7842F08002DCE71A7842F0BA
:101060000C02D8E71A786FF30002D4E71A786FF30E
:101070004102D0E71A786FF38202CCE71A786FF357
:10108000C302C8E71A786FF30412C4E71A786FF343
:101090004512C0E71A786FF38612BCE71A786FF32F
:1010A000C712B8E71A7802F0FB02E8E71A78C2F331
:1010B000C01181F0010161F3C712ACE7AC78434B7A
:1010C0004CB100241C7001F04BFE444B18800220F0
:1010D00000F05EFD10E01B785BB9404B188801F012
:1010E0006FFEC72805D8262000F00AFC262000F055
:1010F000E7FC022000F05CFD204603B030BDAA787A
:101100003AB100245C7001F02BFE344B5880202053
:10111000DEE75B785BB9314B588801F051FEC72898
:1011200005D8272000F0ECFB272000F0C9FC202088
:1011300000F03EFD1DE712781868002A14BF352123
:10114000292101F09DFD1DE045F6CB439C42B5D021
:101150001BD845F615439C427FF423AF01F030FCC9
:10116000A9781F4A1F4B0029E5D000F0AA000028EB
:1011700014BF012100211868117014BF35212921E5
:1011800001F066FD01F0F4FBF3E645F6CC439C422A
:101190000E4BB4D045F6CD4294427FF402AFAA780C
:1011A000002AAED15C78002CC1D10C4B588801F0DC
:1011B00007FEC728BBD8202000F0FAFC282000F04A
:1011C0009FFB282000F07CFC96E700BFE20B00208C
:1011D000790C00203C5C0008A40C0020DE0B0020F1
:1011E000DC0B0020300600200000000000000000A2
:1011F0000020704700000000000000000000000018
:101200000E23C1F3072203FB0020C9B2034B01EBFD
:10121000C00133F8110082B002B070479C59000839
:10122000014B33F810007047965900080000000089
:1012300013B5ADF804100199FFF7E2FF00F040F993
:10124000B0F5804F044668D2B0F5405F80F0C580AD
:10125000DF2853D8C02880F0A980A72809D8A5285E
:1012600080F0AA8001284FD001D304284CD200245A
:101270004AE0BC28FBD8A82800F0DF80A92800F0AD
:10128000DF80AA2800F0DF80AB2800F0DF80AC28E8
:1012900000F0DF80BB2800F0DF80BC2800F0DF809A
:1012A000AD2800F0DF80B02800F0DF80AE2800F02D
:1012B000DF80AF2800F0DF80B12800F0DF80B228A7
:1012C00000F0DF80B32800F0DF80B42800F0DF807A
:1012D000B52800F0DF80B62800F0DF80B72800F0E6
:1012E000DF80B82800F0DF80B92800F0DF80BA285E
:1012F00044F22A6418BF4FF4884405E0FF2806D85A
:10130000F02863D2E728B2D8204602B010BDB0F56D
:10131000005F5FD2C0F30C04F6E7B0F5A84F20D20F
:10132000B0F5A64FC3B271D2B0F5A24F11D2B0F54D
:10133000A04F5BD3012403F00302944044F40C4417
:10134000C0F3011044EA0020C3F3810440EA4414CE
:101350003EE0B0F5A44F4FD24AF2F10040EA032438
:10136000D2E7B0F5AC4F09D2B0F5AA4FC4B257D30B
:10137000240204F4F85444F40054C5E7B0F5B04F27
:10138000FFF475AFB0F5B24F4FD3A0F5C043B3F53E
:10139000005FBFF46CAFC0F3042000F001F9E4B2C9
:1013A000000244F4005400F4F85023E0C03880B246
:1013B000FFF736FF0446A7E73CD044F2820344F22D
:1013C0008302A62814BF14461C469DE740F4A0449F
:1013D000A4B299E7C0F30B00EAE710F4006FC4B2BF
:1013E00014BF44F4484444F440448DE700F4706072
:1013F00043F42044044387E70124980803F00303DF
:101400009C4044EA401444F40C44E1E70124980869
:1014100003F003039C4044EA401444F40A44D7E731
:101420004AF2F40040EA04246EE74AF2F00040EA8F
:101430000424CDE744F2810466E744F2E24463E722
:1014400044F2E94460E744F2EA445DE744F2B5441B
:101450005AE744F2B64457E744F2B34454E744F23F
:10146000B44451E744F2B7444EE744F2CC444BE76E
:1014700044F2CD4448E744F2835445E744F28A54A9
:1014800042E744F292543FE744F294543CE744F27A
:10149000216439E744F2236436E744F2246433E7F5
:1014A00044F2256430E744F226642DE744F22764D1
:1014B0002AE700000000000000000000000000001B
:1014C00082281AD00CD8312854D004D829284AD0E0
:1014D0002A2856D0704735283ED039280DD070477D
:1014E000E32823D004D8E0280ED0E22813D0704798
:1014F000E62822D0E72829D07047264B1B7813F026
:10150000030F18BFE0207047224B1B7813F0010F28
:1015100018BF392070471F4B1B7859071BD513F094
:10152000100F08BFE32018BF00207047194B1B782D
:101530005A072DD413F0100FF5E7164B1B78190737
:1015400009D513F0100F08BFE720ECE7114B1B780B
:101550001A07EFD5E62070470E4B1B7813F0200FCB
:1015600018BF292070470B4B1B7813F0200F18BFB2
:1015700035207047074B1B7813F0400F18BF2A2007
:101580007047044B1B7813F0400F18BF3120704791
:10159000E2207047A40C00200000000000000000C2
:1015A00010B5044601F0CCFA174B1880C0B24107C1
:1015B00007D504F01803082B13D104F0F70444F006
:1015C0000404020707D504F01803182B12D104F005
:1015D000E70444F01404C30648BF04F0E7042046BF
:1015E00010BD04F01403042B04BF04F0FB0444F00A
:1015F0000804E6E704F01403142B04BF04F0EB0422
:1016000044F01804E7E700BFA40C0020000000002D
:101610007047000000000000000000000000000013
:101620008B7870B5054613B90124204670BD134E62
:101630003478A4B945F616439842F5D1FFF7E8FF90
:101640000123337001F08CFB0D4B18800D4B1C7087
:101650000D4B1C805C809C80DC801C81E5E7084B86
:10166000188801F0ADFBC728DED8064A0649137872
:10167000002421F8135001331370D6E7F20B002039
:10168000F00B0020EE0B0020E40B00200000000017
:10169000014B1860704700BFF40B002000000000F1
:1016A000024B186808B1036818477047F40B002014
:1016B000F8B5124B04461B68FBB1114D5B689847A7
:1016C0002B78580719D5D90702D50E4801F0F0FC40
:1016D0000D4F04F110062B78DA0703D52178384630
:1016E00001F0E6FC0134B442F5D12B78DB0704D5D8
:1016F000BDE8F840054801F0DBBCF8BDF40B002064
:10170000790C00204D5C00085F5C00088B5F0008CE
:10171000024B1B680BB19B6818477047F40B002005
:10172000054B1988814205D01880044B1B680BB10A
:10173000DB681847704700BFFA0B0020F40B00204D
:10174000054B1988814205D01880044B1B680BB1EA
:101750001B691847704700BFF80B0020F40B0020EE
:1017600001207047000000000000000000000000A1
:1017700008B501F0EDFAFEF71BFEBDE8084001F0E8
:10178000D7BC0000000000000000000000000000C6
:1017900038B50E4C05462378580711D5D90702D520
:1017A0000B4801F085FC2378DA0703D52946094860
:1017B00001F07EFC2378DB0702D5074801F078FCB6
:1017C0002846BDE83840FEF7B3BF00BF790C0020C3
:1017D000655C0008435600088B5F000800000000AD
:1017E0002DE9FF47FEF734FEFFF7BAFF10BBFF23DA
:1017F0008DF808308DF8093000238DF80A3001F09B
:10180000AFFA40F00100ADF80C0004AB13E903009F
:1018100000F05EF801F07CFEFFF742FF274C2378D2
:10182000834247D0FFF73CFF207004B0BDE8F0478B
:10183000FFF7AEBF224E00243746DFF888905FFAEC
:1018400084F84046FEF73CFFA55D8246A84203D1DE
:1018500001340E2CF3D1CAE799F80030980701D56E
:10186000FEF736FF00238AEA0505EDB245FA03F1DB
:10187000C907DAB21AD501259D401AEA050F14BF2F
:10188000012300238DF800208DF802308DF80180AF
:1018900001F066FA40F00100ADF804009DE8030095
:1018A00000F016F83B5D6B403B55B3E70133082B66
:1018B000DCD1CDE704B0BDE8F08700BFFC0B002011
:1018C000FD0B0020790C002000000000000000004B
:1018D0001FB58DE80300002102AA03919DE80300D3
:1018E0000290ADF80C1092E8030000F031FE05B054
:1018F0005DF804FB00000000000000000000000094
:1019000010B50446002800F0D480822816D1FFF7D5
:10191000C7FE810700F1CD80664C3921206801F0B7
:1019200097F901F025F8C82002F0BAFC39212068A7
:1019300001F0A6F9BDE8104001F01AB8832810D1D3
:10194000FFF7AEFEC20700F1B4805A4C5321206865
:1019500001F07EF901F00CF8C82002F0A1FC53213F
:10196000E5E7842810D1FFF79BFE430700F1A18033
:10197000504C4721206801F06BF900F0F9FFC820B6
:1019800002F08EFC4721D2E7031FDBB2A02B0AD85E
:1019900002F09EF8002840F08C80464B21461868E3
:1019A00001F056F9C6E700F12003DBB2072B07D898
:1019B00000F007040120A040C0B201F009F8B9E727
:1019C00000F15B03DBB2022B0BD8A52807D0A628B9
:1019D0000CBF82208320BDE81040FFF7A1BE81200C
:1019E000F9E700F15803DBB2142B62D8A8282ED0F7
:1019F000A9282ED0AA282ED0AB282ED0AC282ED0A5
:101A0000BB282ED0BC282ED0AD282ED0B0282ED06A
:101A1000AE282ED0AF282ED0B1282FD0B22830D06B
:101A2000B32831D0B42832D0B52833D0B62834D03A
:101A3000B72835D0B82836D0B92837D0BA2840F2E0
:101A40002A2018BF0020BDE81040FFF779BEE22031
:101A5000F9E7E920F7E7EA20F5E7B520F3E7B62054
:101A6000F1E7B320EFE7B420EDE7B720EBE7CC20B8
:101A7000E9E7CD20E7E740F28310E4E74FF4C570D3
:101A8000E1E74FF4C970DEE74FF4CA70DBE740F2DC
:101A90002120D8E740F22320D5E74FF40970D2E7A0
:101AA00040F22520CFE740F22620CCE740F2272065
:101AB000C9E710BD30060020000000000000000053
:101AC00010B500285BD0822812D1FFF7E9FD81070D
:101AD00055D52B4C3921206801F0BAF800F048FFA9
:101AE0003921206801F0CCF8BDE8104000F040BF7B
:101AF00083280CD1FFF7D4FDC20740D5204C5321D9
:101B0000206801F0A5F800F033FF5321E9E78428AD
:101B10000CD1FFF7C5FD430731D5194C472120688B
:101B200001F096F800F024FF4721DAE7031FDBB24B
:101B3000A02B03D8124B01461868D3E700F120030D
:101B4000DBB2072B08D8012300F0070003FA00F0EE
:101B5000C0B200F045FFC7E700F15B03DBB2022B28
:101B600004D8BDE810400020FFF7DABD5830C0B2FD
:101B7000142804D8BDE810400020FFF7E1BD10BDD7
:101B800030060020000000000000000000000000FF
:101B900008B528B100F01CFFBDE8084000F0E8BE21
:101BA00008BD000000000000000000000000000070
:101BB00008B528B100F014FFBDE8084000F0D8BE19
:101BC00008BD000000000000000000000000000050
:101BD0002DE9F0478679857807460C4636090DB120
:101BE00000F01EFF00F0B4FE804670B125B304F192
:101BF0002003DBB2072B1FD9022000F091FE00F07A
:101C0000A7FE80F001005FFA80F8C4F30339B9F150
:101C10000F0F42D8DFE819F0130013004900490004
:101C20008500A60041004100DA0041003101310188
:101C3000940141004100B2014FF00008E5E7C4F310
:101C4000072313F0F00F16BF2609C4F3032606F08E
:101C5000F006E4B295B156B104F12003DBB2072BD4
:101C6000304600D93CB900F0B3FE00F081FE2046BA
:101C7000FFF746FE11E000F0C3FEF6E72046FFF74F
:101C80001FFF56B104F12003DBB2072B304600D909
:101C900044B900F0A5FE00F06BFEB9F10B0F00F2A5
:101CA000578143E000F0B4FEF5E7C4F3072303F0E7
:101CB000F003202B18BF4FEA141AE0B20CBFC4F394
:101CC000032A0AF0F00A50B101281ED025B346B10C
:101CD000BB79D907CCD56FF30713BB7101E055B1C0
:101CE0001EB95046FFF754FFD7E7012E5046F9D1F1
:101CF00000F0B6FED1E72EB900F0BAFE5046FFF76D
:101D000057FFCAE7012EF7D1C7E715B1052EC4D892
:101D1000E7E7042EC1D8F1E7002EEFD0FFF7D0FEA1
:101D2000BBE7C4F381236BB1012B13D0012303FA6A
:101D300009F919F4506F00F00B81FFF7B1FCFEF7C1
:101D4000F7FC05E125B1C4F30900FFF7E9FCEDE775
:101D50002846FAE725B1C4F30900FFF7F1FCE5E7EF
:101D60002846FAE7E0B2CDB1F5280DD0F62810D01C
:101D7000F42804D1864A136843F00103136001F08C
:101D80005FFA01F05DFBD1E7814A136843F002037B
:101D9000F4E77F4A136843F00403EFE7F5280BD01C
:101DA000F6280ED0F42804D1794A136823F00103F1
:101DB000136001F0B5FAE4E7754A136823F00203F3
:101DC000F6E7734A136823F00403F1E714F4407F45
:101DD00026D1002DB1D1C4F342108000E206C3B277
:101DE00004F00F0000FA03F648BF0F20C4F381246B
:101DF00046BF9840C0432846022C07D00AD8012C81
:101E000040EA060009D000F09BFC8FE7304300F069
:101E10009FFC8BE700F094FC304600F089FC85E7DE
:101E2000F5B1C4F30023002B87D0C4F34210800027
:101E3000C3B204F00F0000FA03F514F0100018BF4D
:101E40000F20C4F381241CBF9840C043022C0AD049
:101E50000DD8012C40EA05000CD000F0E9FC65E744
:101E6000C4F34023DFE7284300F0EAFC5EE700F01C
:101E7000DFFC284600F0D4FC58E75FFA84FAAAF1A8
:101E8000E003142B4DD8DFE803F00B0B0B0B0B0B0F
:101E90000B0B0B0B0B0B0B0B0B0B1621272E370011
:101EA0000AF00F0AC4F3042015B100F089FC18E70A
:101EB00000F096FC22E73DB1042E3FF6EEAEC4F3EF
:101EC000042000F09DFCE8E6052EF6E735B1C4F3EA
:101ED000042000F075FCE0E6002DF8D0C4F30420E7
:101EE00000F07EFCD9E625B1C4F3042000F060FCCC
:101EF000D3E600F055FCD0E64DB1C4F304242046EF
:101F000000F05EFC0321204600F002FDC5E6012042
:101F100000F006FD012E7FF6C0AE022000F000FDAD
:101F2000BBE61DB1002ED2D05046A1E6002ED5D082
:101F3000BAF1390F02D1A02002F0B2F95046EDE615
:101F4000C4F30322E1B23846FFF752F900F070FB08
:101F5000B8F1000F19D000F0D3FC10F0010014D13B
:101F6000B87000F0C5FC00F02BFC384600F018F803
:101F700000F0BEFCBDE8F04700F032BCC4F3032221
:101F8000E1B23846FEF7ACFFE2E7BDE8F08700BFFC
:101F90000C0C002000000000000000000000000009
:101FA00037B5838802880446ADF80420BBB14FF6EC
:101FB000FF72BDF804309A1A534253417BB9FEF7C1
:101FC000C7FF60B12188A07800F082FC054600F0D0
:101FD0003FFC00F09DFB29462046FFF7F9FD03B0CA
:101FE00030BD000000000000000000000000000004
:101FF00008B500F015FD00F02BFD094B186800F046
:1020000057FE00F0B5FC01F003FB01F019FA0020C7
:10201000FFF786FBBDE808400020FFF791BB00BF3B
:10202000300600200000000000000000000000005A
:1020300008B500F0DDFCBDE80840FFF7D9BF00009F
:1020400007B5ADF80400019800F032FCC0F303338B
:102050000E3303F00F020D2A0CD80123934013F422
:10206000105FC1B219D140F20330184004D113F00F
:1020700010030BD100200DE0F02902D003D8DF2996
:10208000F8D8012006E0F429F4D1FAE7DF29F8D9DD
:10209000F129F6D003B05DF804FBC0F3C020F9E7E6
:1020A00082B002AB03E9030002B0704700000000F9
:1020B00082B002AB03E9030002B0704700000000E9
:1020C00070B5094B094E1C78094D3378A34200D1F5
:1020D00070BD05EBC40355F8340059680134FFF7AF
:1020E000E7FF04F00704F0E7590C0020580C00202B
:1020F000180C00200000000000000000000000009C
:10210000024B18685968FFF7D3BF00BF100C0020BE
:10211000284A2DE9F34193791B090CD1937853B1E7
:102120004FF6FF76244BDFF898E01978234D9EF8A0
:1021300000308B4202D102B0BDE8F0819388002BC1
:1021400033D0177892F801C08DF804708DF805C06F
:10215000BDF80400B04228D0C8002C1894F80180C3
:10216000E04522D115F831C0BC451ED1A778E7B9AA
:10217000A488A3428ABFF31AE31A1B19C72BCCBF4A
:10218000002301238BB10121937961F3071393712C
:102190002B189A79074861F307129A71FFF700FF2D
:1021A00002B0BDE8F041FFF78BBF013101F007013C
:1021B000BDE700BF100C0020590C0020180C0020B7
:1021C000580C00200000000000000000000000008B
:1021D0002DE9F0430646BF4C00688FB00890A788F1
:1021E000208808A93278737896F80280B6F80490AF
:1021F000ADF80400002F00F0238185B24FF6FF7088
:10220000854200F01D81A578002D00F019814F4511
:102210008ABFC71BA9EB07074F44C72FCCBF0027B6
:102220000127002F00F0BE80A179258811F0F00F62
:102230004FF6FF7075D185421BD028468DF82020BF
:102240008DF82130BDF82050854212D14546B8F1B5
:10225000000F0ED1012363F30711A171FFF750FFA7
:102260009C48FFF79DFEA379B37128460FB0BDE8E7
:10227000F0834546B9F1000F4AD04FF6FF718DF853
:102280001C208DF81D30BDF81C00884240D0002D68
:1022900041D19148914990F800E009789048714502
:1022A0000FD18DF820208DF82130089800F000FB28
:1022B000C0F30332C3B2032A1DD8DFE802F01313C0
:1022C000212100EBC10494F801C09C4506D110F80F
:1022D00031C0944502D1A478002CC6D1013101F05F
:1022E0000701DCE710F4706F01D0002BBDD0203364
:1022F000DBB2072BB9D93046FFF752FE3D46B4E7B3
:1023000010F4706FF3D0B27912F0F00FEFD1ACE7A8
:10231000B8F1000FA9D0A37943F00103A371002500
:10232000A3E7854216D028468DF820208DF821306D
:10233000BDF8205085420DD1B8F1000F0AD1B1711E
:102340003046FFF72DFE3368236073686360FFF744
:10235000D7FED3E78DF820208DF821300898FFF7BD
:102360006FFE002800F0EB80B8F1000F00F0E7806E
:10237000A3791F2B0CD92288ADF82C90ADF828201A
:1023800000228DF82E308DF82A200AA8FFF708FECB
:102390003368236073686360FFF7BAFEFFF7B0FE2F
:1023A000012562E7A07910F0F00F12D18DF82020FE
:1023B0008DF821308DF82280ADF8249003C9FFF705
:1023C0006FFE4448FFF7ECFD27606760FFF798FE5B
:1023D000A5E74FF6FF7127888F4214D039468DF854
:1023E00020208DF82130BDF820708F420BD1B8F13C
:1023F000000F08D1B0713046FFF7D2FDC4F800805D
:10240000C4F8048031E78DF820208DF82130089839
:10241000FFF716FE002800F09280B8F1000F00F0E0
:102420008E80A3791F2BB3D92288ADF83490ADF8F4
:10243000302000228DF836308DF832200CA8A5E728
:102440002088ADF81400002F6CD04FF6FF7580B2D5
:10245000A84267D0A078002864D14F4530D8A9EBB6
:102460000707C72FCCBF00250125002D4CD04546BE
:10247000002D64D04FF6FF712088884232D001468B
:102480008DF820208DF82130BDF82000884229D118
:10249000A379DA0718D41A0916D01A090F2A18BF17
:1024A0000132B3711CBF62F30713B3713046FFF7FB
:1024B00077FD3368236073686360FFF721FED4E61D
:1024C000ED1B4D44C72DCDE733682360736863600F
:1024D000CBE600BF100C0020580C0020590C002047
:1024E000180C00208DF820208DF821300898FFF777
:1024F000A7FD00287FF44CAFA379304643F00103D9
:10250000A371FFF74DFDB0E68DF82280ADF8249061
:102510008DF820208DF8213003C9FFF7C1FD25601B
:102520006560CAE7B8F1000F09D08DF820208DF85A
:1025300021300898FFF784FD00287FF429AF30464A
:10254000FFF72EFD2CE700BF000000000000000098
:10255000F0B587B08DE803006846FFF739FE2F4FCE
:1025600006462F4DB0B1BDF80020BDF80430ADF8DF
:10257000082043B14FF6FF7392B29A4203D09DE810
:102580000300FFF795FD274C28783B78834228D13C
:1025900007B0F0BD04AB9DE8030083E80300BDF87D
:1025A0000410BDF81020ADF80C200029EBD090B23B
:1025B0004FF6FF729042E6D03C782878621C02F019
:1025C0000702824221D0174EADF8141006EBC40E5C
:1025D00003CB3A7046F83400CEF80410FFF770FDD4
:1025E000D1E704EBC000FFF7F3FD0028D0D02B7833
:1025F00004EBC30254F833005168FFF759FD2B7800
:10260000013303F007032B70BEE7FFF711FD064B04
:102610003E702E701E605E60BAE700BF580C00204E
:10262000590C0020180C0020100C002000000000A5
:10263000F8B50346002852D00025012618785C1C06
:10264000732806D8042820D201280AD002281FD0D7
:10265000F8BD752835D02AD3A0F184036F2B33D968
:10266000F8BD9C1C5B7803F12002D2B2072A0BD87C
:1026700003F007039840C0B200F0DAF900F078F9EF
:102680002F4637BB2346D9E71846FFF739F9F7E756
:1026900058789C1C00F12003DBB2072B16D800F001
:1026A000070006FA00F0C0B200F0CAF9E6E75F786A
:1026B0009C1C002FE4D00220013F01F0F1FDFFB28D
:1026C000F7E79C1C5D78DBE700F07F00FFF7F8F987
:1026D000D6E70220013F01F0E3FDFFB2D1E7F8BDEC
:1026E0007047000000000000000000000000000033
:1026F00008B5FFF7F5FF034B1860BDE80840FFF78A
:1027000077BC00BF5C0C002000000000000000004F
:102710007047000000000000000000000000000002
:10272000FFF7E6BF0000000000000000000000000E
:10273000024B1B681843FFF7DBBF00BF5C0C002097
:10274000024B1B681840FFF7D3BF00BF5C0C002092
:10275000024B1B685840FFF7CBBF00BF5C0C00204A
:1027600070470000000000000000000000000000B2
:1027700008B5FFF7F5FF08BD0000000000000000ED
:1027800008B5FFF7F5FF034B1860BDE80840FFF7F9
:102790002FBC00BF600C0020000000000000000003
:1027A0000020FFF7EDBF0000000000000000000067
:1027B000012303FA00F0FFF7E3BF00000000000070
:1027C000012303FA00F0024B1B681843FFF7D8BF40
:1027D000600C00200000000000000000000000006D
:1027E000012303FA00F0034B1B6823EA0000FFF704
:1027F000C7BF00BF600C0020000000000000000008
:10280000012303FA00F0024B1B685840FFF7B8BFE2
:10281000600C00200000000000000000000000002C
:10282000024B1B681843FFF7ABBF00BF600C0020D2
:10283000024B1B681840FFF7A3BF00BF600C0020CD
:10284000024B1B685840FFF79BBF00BF600C002085
:1028500070470000000000000000000000000000C1
:1028600073B51F240D4BADF804001D680C4B1B689D
:102870001D4325FA04F3DB0766B206D414F1FF34D6
:10288000F7D20026304602B070BD0199E0B2FEF7E3
:10289000CFFC80B20128F1D0F4E700BF600C00202B
:1028A0005C0C0020000000000000000000000000A0
:1028B00007B5ADF804000198FFF7D2FF0199C0B247
:1028C000FEF7B6FC03B05DF804FB0000000000005A
:1028D00007B5ADF804100198FFF7EAFF03B05DF803
:1028E00004FB0000000000000000000000000000E9
:1028F000024B93F90000C0F3C7007047750C00202D
:10290000024B187800F00700704700BF750C0020DC
:10291000024B41EAC0011970FFF752BF750C00204D
:10292000084A92F9003023EA000040B210704207D2
:1029300006D1DBB2834203D0C0F3C700FFF750BF1C
:10294000704700BF750C0020000000000000000070
:10295000034B187810F0070018BF0120704700BF24
:10296000750C0020000000000000000000000000C6
:1029700038B50D490D4B09781B780D4C0B430D49AB
:102980000D4D097820680B4395F90010037031B1A3
:102990000B43037000F0E4F808B100232B702068AB
:1029A000BDE83840FEF784BE780C0020770C00208C
:1029B00030060020740C0020760C0020000000007F
:1029C000014B1878704700BF770C00200000000012
:1029D000024A137818431070704700BF770C00202C
:1029E000024A137823EA000010707047770C002029
:1029F0000022014B1A707047770C00200000000085
:102A0000024A137818431070704700BF780C0020FA
:102A1000024A137823EA000010707047780C0020F7
:102A20000022014B1A707047780C00200000000053
:102A3000024A137818431070704700BF740C0020CE
:102A4000024A137823EA000010707047740C0020CB
:102A50000022014B1A707047740C00200000000027
:102A6000014B1870704700BF760C0020000000007A
:102A70000022014B1A707047760C00200000000005
:102A8000030943EA0010C0B28300801000F0330055
:102A900003F0CC03034358005B1003F0550300F030
:102AA000AA0018437047000000000000000000006A
:102AB000014608B5C0B2FFF7E3FF0246080AFFF778
:102AC000DFFF40EA022080B208BD000000000000E5
:102AD00008B54FF6ED61002000F022FB0021022036
:102AE00000F016FB0021032000F012FB002104205F
:102AF00000F00EFBBDE808400021052000F008BBF7
:102B000008B5002000F0F4FA4FF6ED63C31A5842FE
:102B1000584108BD00000000000000000000000057
:102B2000022000F0DDBA00000000000000000000FC
:102B3000032000F0D5BA00000000000000000000F3
:102B4000042000F0CDBA00000000000000000000EA
:102B50000146042000F0DCBA000000000000000084
:102B6000421C00F11003002012F8011B09B10130D2
:102B7000C0B29A42F8D17047000000000000000087
:102B80004FF0FF33002230B5851C15F8014B8C4205
:102B90000CD0B3F1FF3F02D1002C08BF1346013225
:102BA000D4B20E2C62B2F0D15A1C00D130BD184400
:102BB000817030BD00000000000000000000000037
:102BC000002210B5831C10301C7801338C4208BFE2
:102BD00003F8012C8342F7D110BD00000000000073
:102BE000CA080E2A08D801F00703012110449940B1
:102BF0004378194341707047034B1B78DB0702D5BC
:102C0000024800F055BA7047790C0020785C000843
:102C1000CA080E2A09D81044012201F007039A407D
:102C2000437823EA020343707047044B1B78DB07A9
:102C300002D5034800F03CBA704700BF790C002071
:102C4000965C00080000000000000000000000008A
:102C500010B4094C034624780A463CB1074C94F959
:102C60000040002C02DA10BCFFF7BABF114618462C
:102C700010BCFFF785BF00BF02060020A40C002097
:102C800010B4094C034624780A463CB1074C94F929
:102C90000040002C02DA10BCFFF7BABF11461846FC
:102CA00010BCFFF78DBF00BF02060020A40C00205F
:102CB0000022431C103003F8012B8342FBD17047E4
:102CC000222001F0EDBA000000000000000000002A
:102CD000704700000000000000000000000000003D
:102CE000704700000000000000000000000000002D
:102CF00010B5FFF7EDFF0024FDF7AAFBFFF7F0FF8B
:102D0000E0B2FDF7DDFC18B901340E2CF8D110BD8E
:102D1000012010BD000000000000000000000000C5
:102D200008B5FFF765FEFFF77BFE074B1868FFF756
:102D3000BFFF00F06DFC0020FEF7F2FCBDE808408C
:102D40000020FEF7FDBC00BF3006002000000000A0
:102D500070470000000000000000000000000000BC
:102D6000202383F311884FF08043586A002383F3B4
:102D7000118883B24FF47A7058434FF4FA6300F22B
:102D8000CF70B0FBF3F080B270470000000000008D
:102D9000202383F311884FF080430022586A82F386
:102DA00011884FF47A7380B243434FF4FA6003F210
:102DB000CF73B3FBF0F0704700000000000000008C
:102DC0004FF080434FF4FA615A6A4FF47A734843E4
:102DD00000F2E730B0FBF3F0101A80B2584300F273
:102DE000CF70B0FBF1F080B270470000000000002F
:102DF000704700000000000000000000000000001C
:102E0000F0B50124B0FBF4F58D4203D200271CB9C4
:102E10001C70F0BD4C43F5E7B0FBF4F604FB160064
:102E2000B4FBF1F41FB9002E01DC002CEFD1092E08
:102E300003F1010E08DD002A14BF3725572535445C
:102E40001D7001377346E2E73025F8E70000000007
:102E5000F0B50124B0FBF4F58D4203D200271CB974
:102E60001C70F0BD4C43F5E7B0FBF4F604FB160014
:102E7000B4FBF1F41FB9002E01DC002CEFD1092EB8
:102E800003F1010E08DD002A14BF3725572535440C
:102E90001D7001377346E2E73025F8E700000000B7
:102EA0002DE9F041069D002B06460F4614BF4FF05A
:102EB00030084FF020082B4613F8011B49B914467F
:102EC000002C08DD41463046B847013CF8E7013A9E
:102ED000F2E7002AFBDC15F8011B09B9BDE8F08117
:102EE0003046B847F7E7000000000000000000008F
:102EF0002DE9F04F81468A4615461C4689B005AF3C
:102F0000297881B3252903D048460135D047F7E712
:102F10006A784FF00008302A0CBFAA78AE1CA2F1E4
:102F2000300312BF4FF0000BEE1C4FF0010B092BCA
:102F30000CD8A2F13003D9B2092917D9A2F1610343
:102F4000052B19D8A2F157030A2B0FDD6C2A6BD180
:102F50003278751C632A4FD015D8252A5FD0582A9D
:102F600020D0002ACCD109B0BDE8F08F0A2202FBA4
:102F7000083816F8012BDCE7A2F14103052BE5D850
:102F8000A2F13703E0E7732A3ED007D8642AB7D10D
:102F90002068261D00280FDB3B4613E0752A6BD006
:102FA000782AADD13B461021A2F15800424204F1EB
:102FB00004064241206807E02D2340428DF814307A
:102FC0000DF1150300220A21FFF71AFF344600977E
:102FD0005B46424651464846FFF762FF90E72D2385
:102FE00040428DF814300DF1150300220A21FFF73D
:102FF0002FFF3546039CEAE72E4621784846251DDB
:10300000D0472C4635467BE72E4623684246009340
:10301000514600234846251DFFF742FFF1E72E46A3
:1030200025214846D047EDE7632AE6D006D8252A71
:10303000F6D0582A12D0002A95D0E3E7732AE4D0BC
:1030400008D8642ADED12068231D00280393C6DB3C
:103050003B46CAE7752A14D0782AD3D1A2F1580189
:103060004A4204F104054A4120683B4610212C469F
:10307000FFF7EEFE3546AAE7261D3B4600220A2151
:1030800098E7231D039300223B460A212068AEE700
:10309000024B1960024B1860704700BF7C0C002087
:1030A000800C002000000000000000000000000074
:1030B0000FB407B5074904AB074853F8042B096858
:1030C00000680193FFF714FF03B05DF804EB04B050
:1030D000704700BF7C0C0020800C00200000000026
:1030E000014B185C704700BF840C002000000000FA
:1030F000034BC2185278185C40EA0220704700BFA8
:10310000840C00200000000000000000000000000F
:10311000014B1954704700BF840C002000000000D0
:10312000024B19541844090A41707047840C00205E
:1031300008B5FFF7E5FC08B9FFF7CAFCFFF7F0FC9C
:10314000054B1870FFF7FCFC044B1880FFF7F0FCF0
:10315000BDE80840FFF7E4BA790C0020A40C002079
:10316000194B1B78D9070AD5184B187800EB80004B
:10317000C0F38F007F2825D810BB012070479A0725
:1031800006D5124B187800EB8000C0F34F00F1E732
:103190005B0704D50D4B187800EB8000EAE70C4B79
:1031A0001B7863B10B4A12789342F3D2074908782F
:1031B00000EB8000584390FBF2F080B2DAE7052084
:1031C000C0B270477F207047AD0C0020360600204B
:1031D000AE0C0020370600200000000000000000B8
:1031E000134B1B78D90705D5124B18788008E8B91E
:1031F000012070479A0703D50E4B18784008F6E770
:103200005B0705D50B4B18787F28F0D97F207047D6
:10321000094B1B784BB1094A12789342F2D2054907
:103220000878584390FBF2F0EEE70120C0B27047F7
:10323000AD0C002038060020AE0C0020390600201E
:10324000F02808B505D1FFF78BFF40422F4B98704F
:1032500008BDF12802D1FFF783FFF7E7F22805D177
:10326000FFF77EFF4042294B587008BDF32802D17A
:10327000FFF776FFF7E7F92804D1FFF7B1FF234BFB
:10328000D87008BDFA2803D1FFF7AAFF4042F6E73D
:10329000FB2805D1FFF7A4FF40421C4B187108BD65
:1032A000FC2802D1FFF79CFFF7E7F42804D1174A66
:1032B000137843F0010313E0F52804D1134A13787F
:1032C00043F002030CE0F62804D1104A137843F0CF
:1032D000040305E0F72805D10C4A137843F00803EE
:1032E000137008BDF82804D1084A137843F010037E
:1032F000F6E7FD2801D1064ADAE7FE2801D1044AA3
:10330000DDE7FF28EDD1024AE0E700BFA80C00206E
:10331000AD0C0020000000000000000000000000D4
:10332000F028414B14D193F90220002A01DA00223F
:103330009A7093F9012052B993F902203AB993F99E
:10334000032022B993F904300BB9384A137070473F
:10335000F12804D193F90220002AE8DCE9E7F228F9
:1033600006D193F90120002AE3DA00225A70E0E73F
:10337000F32804D193F90120002AF6DCD9E7F928D3
:1033800006D193F90320002AD3DD0022DA70D0E7BA
:10339000FA2804D193F90320002ACADAF5E7FB28BA
:1033A00006D193F90420002AC3DA00221A71C0E77B
:1033B000FC2804D193F90420002AF6DCB9E7F428AC
:1033C00004D11A7822F001021A70B2E7F52803D16D
:1033D0001A7822F00202F7E7F62803D11A7822F0D1
:1033E0000402F1E7F72803D11A7822F00802EBE78C
:1033F000F82803D11A7822F01002E5E7FD2805D15C
:103400000B490A7822F001020A7092E7FE2804D1E3
:1034100007490A7822F00202F6E7FF2889D1044919
:103420000A7822F00402EFE7A80C0020AE0C00207E
:10343000AD0C0020000000000000000000000000B3
:10344000234B10B51B781B073AD5224C2248FFF7B7
:103450002FFE21782148FFF72BFE2148FFF728FE99
:1034600094F901101F48FFF723FE1F48FFF720FEC5
:1034700094F902101B48FFF71BFE1B48FFF718FECC
:1034800094F903101748FFF713FE1748FFF710FED3
:1034900094F904101348FFF70BFE1448FFF708FED9
:1034A000134B14481978FFF703FE1348FFF700FE8B
:1034B000124B10481978FFF7FBFD1148FFF7F8FD94
:1034C0000448FEF725F9FFF74BFC0E4B188010BDA2
:1034D000790C0020A80C0020B45C000843560008BA
:1034E000D75C0008D95C0008E05E0008DC5C0008DE
:1034F000AE0C0020DF5C0008E25C0008AD0C002090
:1035000003600008A60C002000000000000000007E
:103510003A4B10B51888FFF753FC39490B78A3B123
:10352000384A1278824267DC374C94F901208AB914
:1035300094F9020000285CD194F90300002858D1C6
:1035400094F90400002854D110BD304A14780A229E
:103550006243E7E7FF2B01D001330B70002A02DD45
:10356000FFF7FEFD607094F90130002B03DAFFF7DE
:10357000F7FD4042607094F90230002B02DDFFF746
:10358000EFFDA07094F90230002B03DAFFF7E8FD9D
:103590004042A07094F901204AB194F9021031B16F
:1035A000B5235A434B4312121B126270A37094F955
:1035B0000330002B02DDFFF713FEE07094F90330B7
:1035C000002B03DAFFF70CFE4042E07094F9043060
:1035D000002B02DDFFF704FE207194F90430002B6C
:1035E00003DAFFF7FDFD40422071BDE81040FFF710
:1035F00027BFFF2BB0D1BEE710BD00BFA60C002037
:10360000AE0C002035060020A80C00203406002057
:103610000023044A13601371034A1370034A1370A2
:10362000704700BFA80C0020AE0C0020AD0C00209D
:1036300008B50548FFF73CFDBDE80840012205211B
:103640000248FFF735BD00BF836100087E620008B5
:103650000138052847D8DFE800F0030F1A25303B72
:10366000214B22481A781144FE29CABFFF22197043
:103670001A701978FFF71CBD1D4B1E481A781144AB
:10368000FE29CABFFF2219701A701978F2E71A4B87
:103690001A481A781144FE29CABFFF2219701A70FD
:1036A0001978E7E7164B17481A781144FE29CABF64
:1036B000FF2219701A701978DCE7134B13481A7837
:1036C0001144FE29CABFFF2219701A701978D1E778
:1036D0000F4B10481A781144FE29CABFFF221970F7
:1036E0001A701978C6E7704734060020CC620008CB
:1036F00035060020DB62000836060020ED62000877
:103700003706002000630008380600201563000813
:10371000390600202E6300080000000000000000B1
:103720000138052847D8DFE800F0030F1A25303BA1
:10373000214B22481A788A4293BF0022511A1970ED
:103740001A701978FFF7B4BC1D4B1E481A789142C5
:103750002DBF0022511A19701A701978F2E71A4B0E
:103760001A481A7891422DBF0022511A19701A7006
:103770001978E7E7164B17481A7891422DBF0022B7
:10378000511A19701A701978DCE7134B13481A781C
:1037900091422DBF0022511A19701A701978D1E781
:1037A0000F4B10481A7891422DBF0022511A197000
:1037B0001A701978C6E7704734060020CC620008FA
:1037C00035060020DB62000836060020ED620008A6
:1037D0003706002000630008380600201563000843
:1037E000390600202E6300080000000000000000E1
:1037F00010B5014604460548FFF75AFC0120A040D9
:10380000FEF78EFFBDE81040FEF712BC49630008CA
:103810001D2838B575D04ED8102800F0AC801CD8C3
:10382000072800F08A8006D8062875D07548FFF76B
:103830003FFC002038BD0B284FD00E28F6D1724C2B
:103840002378C3F3800282F0010262F382035907F6
:10385000237040F18E806D4826E0162800F0AB8082
:1038600011D81128E2D1FEF7E3FB69490B78C3F3C5
:10387000C01282F0010262F3C7130B701B064CBF2B
:10388000644865482AE0192800F084801B28CDD1BF
:103890005D4C2378C3F3400282F0010262F34103DE
:1038A0009807237063D55D48FFF702FC237843F047
:1038B000010323702EE0352806D007D8272803D02F
:1038C000C0F09E802928B1D1002096E0422808D877
:1038D0003A2880F090803828A8D15148FFF7E8FBBB
:1038E00018E04328F0D04828A0D1FEF7A1FB4D48AE
:1038F000FFF7DEFB4FF4FA6000F0D2FCFFF778FA36
:1039000008E04948FFF7D4FB00F022FAFDF7C8FEB3
:10391000FCF70EFF012038BD3B4A4448137803F002
:10392000F1036FF300031370FFF7C2FB4048FFF78A
:10393000BFFB01203F4B187038BD334D2B78C3F3CC
:10394000000282F0010262F3000313F001042B7005
:1039500001D03948C2E73948FFF7AAFB2B7864F356
:10396000410364F3820364F3C3032B70D2E734484A
:10397000B4E73448B2E7244C2378C3F3C00282F0A2
:10398000010262F3C3031A07237001D52E488BE7A7
:103990002E48A3E72E48FFF78BFB2E48FFF788FB46
:1039A0002D48FFF785FB2D48FFF782FB2C48FFF7DA
:1039B0007FFB2C4892E72C48FFF77AFBFDF770FE5F
:1039C00001462A48FFF774FB294B2A481978FFF76C
:1039D0006FFB294B29481978FFF76AFB0C4B2848E5
:1039E0001978C909FFF764FBFFF7D2F901462548AA
:1039F000FFF75EFB8EE73938C0B2FFF7F9FE89E7C3
:103A00001D38F9E7E9600008790C0020165F00080E
:103A1000A40C0020D4600008DE600008FB5E0008F3
:103A2000EE5C0008C65E00088B5E00089B5E000826
:103A3000C25E0008AF0C0020E25E0008EE5E0008E7
:103A4000085F0008255F0008355F0008415F000837
:103A50004E5F00085D5F00088D5F0008CD5F0008C5
:103A600006600008476000085360000861600008B5
:103A7000020600207B600008800B00209260000896
:103A8000A5600008BD600008000000000000000004
:103A9000002070470000000000000000000000004F
:103AA000002070470000000000000000000000003F
:103AB0001E38C0B209289ABF014B185C002070471D
:103AC000E45C0008000000000000000000000000AE
:103AD000F8B5784E054634783746012C15D004D316
:103AE000022C43D000203070F8BD734B1B681B784C
:103AF000222B22D1FFF7CCFF18B92846FFF788FE0A
:103B000000E0012000F00100F8BD6B4B1B681B7842
:103B1000222B05D1FFF7BCFF0028EED02046F1E7AD
:103B2000FFF7BEFF00BB142D14D008D80B2D0AD010
:103B3000102D12D06148FFF7BBFA0020F8BD292DE7
:103B400008D0382DF6D15E48FFF7B2FA5D48FFF78E
:103B5000AFFA09E000203870F8BDFFF769FD5A4858
:103B6000FFF7A6FA022333700120F8BD232813D8EB
:103B70001E2875D20B2816D004D8072800F08380A1
:103B80004E48E4E7132825D01428F9D14F4B1A7872
:103B9000DAB100221A7008E04B2872D00DD829281B
:103BA000F4D03828ECD1FFF743FD484B19780029B1
:103BB0007DD04748FFF77CFAD6E751285BD05228E2
:103BC00053D04E28DCD10A2156E03E48FFF770FA68
:103BD0000120C0E73F48FFF76BFA3F48FFF768FA5C
:103BE0003E4B3F481978FFF763FA3E48FFF760FA0B
:103BF0003D48FFF75DFA3D4B39481978FFF758FA11
:103C00003848FFF755FA3A48FFF752FA394B34482B
:103C10001978FFF74DFA3348FFF74AFA3648FFF7AD
:103C200047FA364B2E481978FFF742FA2D48FFF72E
:103C30003FFA3348FFF73CFA324B29481978FFF72F
:103C400037FA2848FFF734FA2F48FFF731FA2F4B9D
:103C500023481978FFF72CFA2248FFF729FAA4E73E
:103C6000FFF726FF194B18709FE70121174B1878B3
:103C7000FFF7EEFC99E70121144B1878FFF750FD90
:103C800093E70A21F2E71E22144B21481A703222D0
:103C9000164B1A700A22174B1A701422174B1A70FF
:103CA0000822184B1A702822184B1A70D5E71948A9
:103CB0004DE700BFAF0C002030060020E96000088F
:103CC0009B5E0008C25E0008EB600008B00C00209C
:103CD0007A610008EF600008FD60000834060020EB
:103CE000DF5C00088B5F00080F61000835060020CC
:103CF00021610008360600203061000837060020E8
:103D0000416100083806002056610008390600208D
:103D10006D610008806100080000000000000000E4
:103D200070470000000000000000000000000000DC
:103D30000220FCF7FDBC00000000000000000000B5
:103D40000020FCF7F5BC00000000000000000000AF
:103D500070470000000000000000000000000000AC
:103D6000704700000000000000000000000000009C
:103D7000704700000000000000000000000000008C
:103D8000FEE700000000000000000000000000004E
:103D900070B500240C4B03F18000A3F1100126C97B
:103DA0000439AA4207D353F8041C8A4208D31033BB
:103DB0008342F2D170BD51F8046F42F8046BF0E712
:103DC00042F8044BF1E700BF606300080000000008
:103DD000FEE70000000000000000000000000000FE
:103DE00030BFFDE700000000000000000000000000
:103DF00010B5194C00F014F900F082F800F0A8FAA0
:103E000000F0DEFA80221549204600F0D9F901239E
:103E10000377134B134AD96844F8140C21F4E0617A
:103E20000904090C0A431049DA60CA6842F080723A
:103E3000CA600E490A6842F001020A601022DA776D
:103E4000202283F82220002383F3118862B6BDE884
:103E50001040074800F0ECB9B40D0020EE630008F4
:103E600000ED00E00003FA05F0ED00E0001000E0D6
:103E7000D063000800000000000000000000000007
:103E80002DE9F84300264FF0804337461B4C5A6A11
:103E9000E56992B204F11C08E08C2B89111A89B2F1
:103EA0008B420ED9E169414525D01844801A80B271
:103EB00002282CBF1018901CBDE8F84380B200F017
:103EC00097BB0344E3842B68D5F80C904345C3F8B3
:103ED0000480E361EE6001D100F082FB87F311887A
:103EE0002869C847202383F311884FF080435A6A1A
:103EF000E56992B2D0E7BDE8F88300BF880D0020E5
:103F0000054B03F11C02DA611A624FF6FF729A84C4
:103F10000022DA84704700BF880D002000000000F6
:103F200070B503614FF080435C6A1C4BC26005466C
:103F30001846022938BF022150F81C2FA4B2824231
:103F40001E4604EB01000AD1DC84DD611D6280B2F3
:103F50002A606A602981BDE8704000F039BBDC8CC2
:103F600080B2041B1389A4B2A34201D900F040FB24
:103F7000F3691A8994420CD85A682B606A601560FC
:103F80005D602C811A89141B1C814FF6FF73B3846A
:103F900070BDA41AA4B21B68EBE700BF880D002017
:103FA00010B41B4C234653F81C1F81420ED04168AD
:103FB00002680A600268516000219A42C16003D021
:103FC000138901890B44138110BC704700200A68D3
:103FD0009A42E2615360C86002D110BC00F000BB9D
:103FE000138909890B449BB213814FF08042506AB8
:103FF000E28C80B2821A92B29342E5D99B1A9BB2AC
:10400000022B2CBFC018023010BC80B200F0F0BAF6
:10401000880D0020000000000000000000000000EB
:104020000022034B1B605B609A601B615B61704701
:10403000880D0020000000000000000000000000CB
:10404000002382680377054B1B6899689142FBD275
:104050005A6803604260106058607047880D002005
:1040600008B5202383F31188027F0023052A06D890
:10407000DFE802F00B050503120E026A13604FF031
:10408000FF330362FFF7DCFF002383F3118808BDD1
:10409000026A93680133936090E80C001A6002682A
:1040A0005360ECE70000000000000000000000008A
:1040B000002382680377054B1B6899689142FBD8FF
:1040C0005A6803604260106058607047880D002095
:1040D000054B996908771868026853601A609861FF
:1040E00001230377FCF7ECB8880D002000000000E6
:1040F0004FF6FF7330B5994287B005460A4C10D091
:10410000A3690A4A01A8FFF70BFF2846FFF7E0FF63
:10411000049B13B101A8FFF743FFA369186A07B016
:1041200030BDFFF7D5FFF8E7880D0020614000089B
:1041300038B50C4D0162AB6981689A6804469142BA
:1041400003D8BDE83840FFF77BBF1846FFF778FF7C
:104150000123AC61237701462046BDE83840FCF7D7
:10416000AFB800BF880D0020000000000000000074
:10417000044B1A689B6990689B68984294BF002022
:1041800001207047880D00200000000000000000A2
:1041900010B5084C2368A0691A6854602260012297
:1041A0001A77A361FFF784FF0146A069BDE81040BC
:1041B000FCF786B8880D0020000000000000000019
:1041C00010B5022482608263012204770024827782
:1041D000084A816151690261416144774463046323
:1041E0000861506100F12402426200F128028262FB
:1041F000C26210BD880D0020000000000000000019
:1042000083680168A3F1640243F8342C026943F81F
:10421000642C426943F8602C034A43F8442CC2687A
:10422000A3F14000FFF7CCBFD1020008000000005E
:1042300010B5202383F31188FFF7E2FF0021044625
:10424000FFF776FF002383F31188204610BD00009E
:1042500038B50C4B9C69206204F12405606AA842C1
:104260000BD1A37F23B9226963691A612269536163
:104270000F20BDE83840FFF72BBF03686362FFF7EC
:10428000DFFEEBE7880D00200000000000000000CA
:10429000202383F31188FFF7DBBF0000000000003C
:1042A00008B50146202383F311880820FFF720FF7B
:1042B000002383F3118808BD000000000000000007
:1042C00010B5054CA369036018620320FFF700FFD7
:1042D000A369186A10BD00BF880D0020000000000F
:1042E00003682BB10022026019621846FFF7A8BECE
:1042F0007047000000000000000000000000000007
:1043000049B1064B42689B6918605A60136043606C
:104310000420FFF7EDBE4FF0FF307047880D0020FE
:104320000368984206D01A68026050601962184605
:10433000FFF786BE7047000000000000000000008C
:1043400000230060406083607047000000000000B0
:10435000034A044B1A60044A044B1A60704700BFBA
:10436000E00E0020F40D002000500020F00D002091
:1043700030B5094C421E23684D42581E074B084475
:104380001B6828400A442A401B1A9A429ABF1218F6
:104390002260002030BD00BFF40D0020F00D002091
:1043A00008B5202383F31188FFF7E2FF002383F38E
:1043B000118808BD0000000000000000000000009F
:1043C0000548064B103040F8103C002340F8083CEC
:1043D00040F8043CFFF7B4BFF80D0020A1430008EB
:1043E00080B500AFEFF30983203383F309880023FE
:1043F00083F3118880BD0000000000000000000071
:1044000098B5202300AF83F311880D4B5B6813F43C
:10441000006312D0EFF309844FF0807344F8043C3A
:10442000A4F1200383F30988FFF7A2FE18B1054B1E
:1044300044F8083C98BD044BFAE783F3118898BD13
:1044400000ED00E0E1020008E402000800000000C6
:1044500008B500F0C5FB054800F022FC00F0E8F8C4
:1044600000F0D6FFBDE8084000F0AAB8406400089C
:10447000043210B5836002FB0314C361002343625E
:104480008362029B0060C362039B40600161C16064
:10449000446182610162036310BD000000000000FE
:1044A0000369C2689A4203D182680AB1002070474A
:1044B000184650F8043B0B607047000000000000F5
:1044C0008368826901338360036900211344426970
:1044D0000361934224BF036A0361FFF721BF000019
:1044E00038B504460D46A3683BB1E36800201A1DA9
:1044F0006262A2691344A36205E029462046FFF7E1
:10450000FFFE0028EFDA38BD0000000000000000C8
:10451000C36819608268013A826082691344426903
:10452000C360934224BF036AC36000234362C36A2B
:1045300003B11847704700000000000000000000B1
:1045400070B5202304460E4683F31188456A35B9B9
:104550001146FFF7C5FF10B185F3118870BD636A7E
:104560001E70636AA26A01339342636204D3A16935
:1045700020460439FFF7CCFF002080F3118870BD7E
:10458000C26803699A4203D183681BB91846704711
:104590000023FBE7436A002BF8D0043B9B1AF5D0BD
:1045A00013608368013B836083691A444369C26076
:1045B0009A4224BF036AC360002343620123E5E7F4
:1045C00000F0F6BB0000000000000000000000004A
:1045D0004FF08043002258631A610222DA6070476C
:1045E00000224FF08043DA607047000000000000B6
:1045F0004FF0804358637047000000000000000047
:1046000010B5044690F8763080F87E3000F070FDEA
:1046100063681B6813B10121204698470323237068
:1046200010BD0000000000000000000000000000BD
:1046300000F02EBD0000000000000000000000009F
:1046400001230370002300F12C02436000F14801B4
:1046500042F8043B8A429361FAD103814381704757
:1046600038B50446202383F311880025416000F10A
:104670000C0300F12C0243F8045B9342FBD120466B
:1046800000F00EFD0223237085F3118838BD000071
:1046900070B500EB8103054650690E461446DA609A
:1046A00018B11422002100F0BBFEA06918B1142239
:1046B000002100F0B5FE31462846BDE8704000F00C
:1046C00027BD000000000000000000000000000006
:1046D000F0B4012500EB8104E4684789A4698D40AA
:1046E0003D43458123600023A2606360E360F0BC2A
:1046F00000F0DEBD0000000000000000000000002F
:10470000F0B4012500EB8104E468078964698D40F9
:104710003D43058123600023A2606360E360F0BC39
:1047200000F0E6BD000000000000000000000000F6
:1047300002232DE9F0410370002304464FF02008C6
:104740001D46A0F87C3080F87E3080F87F300381F1
:10475000438100F10C0600F12C0733689BB188F30C
:1047600011883368586920B16FF001010C30FFF7F0
:10477000B7FD3368986920B16FF001010C30FFF785
:10478000AFFD85F3118846F8045BBE42E5D184F89D
:104790006450204600F02CFD63681B6823B120465E
:1047A000BDE8F04100211847BDE8F081000000009D
:1047B000F8B505230370436805461B680BB1032158
:1047C00098472026002705F10C042C3523689BB15F
:1047D00086F311882368586920B16FF001010C300D
:1047E000FFF77EFD2368986920B16FF001010C305E
:1047F000FFF776FD87F311880434AC42E6D1F8BDAB
:104800000421436801701B6803B11847704700001A
:10481000002370B5044680F8643000F1740200F0A3
:1048200027FD63689B6853BB94F8745015F06006CD
:1048300013D194F8753005F07F0545EA0325B5F5E9
:10484000407F00F08F8058D8022D00F0C4803ED801
:10485000002D72D0012D00F0B8800021204600F01C
:1048600087FD0021204600F06BFD63681B6813B1D3
:10487000052120469847062384F8643070BD204601
:1048800098470028D0D094F87B2094F87A3043EAF7
:104890000223E26E934238BFE36694F97430E56E0A
:1048A000002B4FF0200380F2D480002D00F0C38055
:1048B000012284F8642083F311880021E36EA26E44
:1048C0002046FFF71DFF002383F3118870BDB5F567
:1048D000807F39D0B5F5817FBFD194F87630002B39
:1048E000BBD194F8783013F00F0168D01A06204637
:1048F00040F18B8000F06CFD61E0B5F5C06F3BD0FE
:104900000CD840F202339D4200F08280B5F5A06FD2
:10491000A3D15C4BA666E6662367B4E7B5F5106FD6
:1049200040D040F602439D424FD0B5F5006F94D180
:1049300004F17F03A366012332E004F17C03A36644
:1049400002232567E3669EE794F87630012B84D135
:10495000B4F87C3023F00203A4F87C30A666E66647
:10496000266790E794F87630012B7FF476AFB4F8A1
:104970007C3043F00203EFE794F87920616894F803
:1049800078304D6843EA022394F8771094F8762043
:104990002046A84700283FF460AF4368A366036839
:1049A000E366DDE794F8763084F87F305BB9032363
:1049B000237063681B6813B10221204698470023C7
:1049C000A366E366A8E70423F2E72F4BA36602235E
:1049D000E3660023A0E794F87810204611F0800FDA
:1049E00001F00F010AD000F033FC012809D00228A1
:1049F0007FF433AF254BE066A366B1E700F018FC07
:104A0000F3E7234BE566A366AAE700F0C9FCD6E707
:104A100094F87630002B7FF420AF94F8783013F0C0
:104A20000F01CCD01B06204602D500F0A1FCC6E742
:104A300000F086FCC3E7032284F8642083F3118826
:104A40002B462A4629462046FFF742FE85F3118869
:104A500070BD5DB1042284F8642083F311880021C5
:104A6000E36EA26E2046FFF733FE2CE7052284F8A2
:104A7000642083F311882B462A4629462046FFF7F7
:104A80003FFEE3E7014600080864000804640008EC
:104A900006640008000000000000000000000000A4
:104AA00038B590F864300446062B22D8DFE803F0CE
:104AB000370422373732370090F87B1090F87A208D
:104AC000C36E42EA01229A4214D9C268128AB3FB29
:104AD000F2F502FB15356DB9202383F311882B46BF
:104AE0002A462946FFF70CFE85F31188022384F835
:104AF000643038BD032384F86430202383F31188A5
:104B0000002320461A461946FFF7E2FD002383F3EF
:104B1000118838BD036F03B198470023E7E70021F0
:104B200000F026FC0021204600F00AFC63681B68A8
:104B300013B10521204698470623D8E7000000005E
:104B400090F8642038B5062A044621D80123934002
:104B500013F0670F1DD113F008050FD1DB0617D531
:104B6000052380F86430202383F311882B462A46DE
:104B70002946FFF7C5FD85F3118838BDC3689B69D9
:104B80005B682BB9036F03B19847002384F8643046
:104B900038BD002100F0ECFB0021204600F0D0FBE6
:104BA00063681B6813B10521204698470623EDE78B
:104BB00000F16043090103F56143C9B283F80013B2
:104BC000012300F01F024009800000F16040934083
:104BD00000F56140C0F880310360704700000000BC
:104BE0000B4B4FF0FF311A69002219611A61D86826
:104BF000D960DA60DA6942F08052DA61DA6942F04B
:104C00000062DA61034A136843F4807313607047EB
:104C10000010024000700040000000000000000092
:104C2000194B1A6842F001021A601A689007FCD505
:104C30001A6802F0F9021A6000225A605A6812F0EB
:104C40000C0FFBD11A6842F480321A601A68910383
:104C5000FCD55A6842F4E8125A601A6842F0807231
:104C60001A601A689201FCD51221084A5A60084A53
:104C700011605A6842F002025A605A6802F00C024F
:104C8000082AFAD1704700BF0010024000641D00DE
:104C900000200240000000000000000000000000B2
:104CA000174A936943F07D0393610268154BDA60FC
:104CB00082685A6042681A60C26803F58063DA60ED
:104CC00042695A6002691A608269C3F80C24026A58
:104CD000C3F80424C269C3F80024426AC3F80C284C
:104CE000C26AC3F80428826AC3F80028026BC3F8BA
:104CF0000C2C826BC3F8042C426BC3F8002C704759
:104D00000010024000080140000000000000000008
:104D1000032AF0B528D101610024154B08269F5CB9
:104D200025462346224611F0800F4FEA03134FEA2F
:104D300004144FEA02124FEA05150CBF43F00F03AB
:104D40003C4311F4004F0CBF42F00F023D43013EC3
:104D50004FEA4101E7D141680A402A4342600268B4
:104D6000134023430360F0BD042A08BF4161D3E729
:104D70000A640008000000000000000000000000BD
:104D80004FF080431A6910B5920708D500241C61C2
:104D9000202383F31188FFF773F884F31188BDE8AB
:104DA0001040FFF72DBB00000000000000000000D5
:104DB0000E4A0821D3691C2043F00103D3610C4A39
:104DC000536843F4006353604FF0804348F69F42BA
:104DD0009A624FF6FF72DA6200229A615A63DA60D1
:104DE0005A6001225A611A60FFF7E2BE00100240C9
:104DF000002004E0000000000000000000000000AF
:104E00000D4B00011B6D10B503F1804303F5C0434A
:104E1000C418C358104603F1005303F540535B0018
:104E20006260141A00280C4400DC10BD248802388B
:104E300043F8044BF5E700BF005C004000000000B1
:104E40002DE9F74F8F4D6C6C670505D56FF48063C6
:104E50008D486B64FFF76CFC260509D52B6C8A48DE
:104E600043F008032B646FF400636B64FFF7A0FC4E
:104E7000E0040DD5834DAB6C190406D42B6C82482D
:104E800023F008032B64FFF7BBFC6FF480536B64C3
:104E9000A20508D57C484368DB6803B198476FF4E6
:104EA0000072784B5A64784EDFF8E081230404D412
:104EB00003B0BDE8F04FFFF7A3BA04F00F04A5005C
:104EC00005F1804505F5B845D5F800A0A71C06EB0F
:104ED00087031AF0800FD3F8049026D02A68D9F8F7
:104EE000143002EA080242F400422A6019695A6842
:104EF00018680A44801A5A602DD0B9F810208242EE
:104F000028BF024698681A61014499602046FFF75D
:104F100077FF2B6823F4F04323F0400383F0300342
:104F200043F4004343F080032B601AF4004F0FD08A
:104F30002B681AF4006F03EA080343F080032B6028
:104F400025D006EB87077B6821465B68304698478B
:104F50004C4B5C6CAAE7012303FA04F2338923EA81
:104F600002033381D9F8083013B1214630469847FF
:104F7000202383F3118806EB87035B6800215869BF
:104F80000C30FFF7ADF9002383F31188CDE73D4ADC
:104F9000D9F81830126DD3F808A002F1804202F55A
:104FA000C04202EB04118A68D1F80CE002F1005211
:104FB00002F540525200CEF30901009293468A1C3A
:104FC0000AF102000192019AA2EB000CD444BCF158
:104FD000010F40D84808B1EB400F18BF009A2EF0DF
:104FE000010E18BF52F820204FEA8E5E4FEA9E5EF7
:104FF00018BF0AF80E209A680A449A605A680A4450
:105000005A601A68521A1A601A8A013A92B21A82BF
:10501000B9F812308B4200D83ABB012303FA04F2EC
:10502000738923EA0203738106EB87035B68DB68FD
:1050300013B1214630469847202383F3118806EBAD
:1050400087077B68986941680C30FFF749F90023AE
:1050500083F311887CE75BF804CB023000F804CCC2
:105060004FEA1C2C00F803CCADE72B6823F49043E7
:1050700023F0700383F4405343F4004343F0800370
:105080002B6065E7005C0040180E00200F07FFFF53
:105090000148FFF7D5BA00BF180E0020000000003D
:1050A000027838B5012A044618D10D4B984210D128
:1050B0000C490D4DCB69132043F40003CB612A64E6
:1050C0000D21FFF775FD0E211420FFF771FD002360
:1050D0002B642046BDE83840FFF72ABB38BD00BF2F
:1050E000180E002000100240005C0040000000008C
:1050F00090F87E30024A43F08003D364704700BFCB
:10510000005C004000000000000000000000000003
:1051100000EB8103F0B5DE68336813F0030353D06E
:10512000022B54D9032B4FD14FF4C0622D4B0F01EA
:105130001C6D736904F1804404F5C0443D1973B1DA
:1051400000236B60338AD0F880E0013323F0010341
:105150007344C0F8803042F0200247F804E0B3699D
:10516000C3B1748A3E2C04F1FF3332D943F01F03DC
:1051700001331D4E5B1146EA83239BB2EB60D0F8EE
:105180008030013424F001041C44C0F8804042F413
:105190000052AB6048F2800042EA010323F47843F6
:1051A000890023F0F00301F1804101F5B841034388
:1051B00022F4F1620B6022F007020B685204520CD9
:1051C0005A4002430A60F0BD4FF40072AEE700227D
:1051D000ACE7022643F00103013393FBF6F39B0295
:1051E000CBE700BF005C00400080FFFF0000000034
:1051F00010B4002180240A4B19655964DC644468AA
:10520000E4688C420CBF4FF41C444FF41E441C64F1
:105210004023C0F88030034B10BCC360FFF778BF59
:10522000005C00401C64000800000000000000005A
:10523000054B53F8210010F4405004D0B0F5805FC6
:105240000CBF012002207047005C004000000000FD
:10525000054B53F8210010F0300003D010280CBF8C
:1052600001200220704700BF005C004000000000E9
:105270000B4B1B6D03F1804303F5C04303EB01119E
:105280008B6803F1005303F540535B0003F11001F9
:1052900053F8040B8B4222F8020BF9D1704700BF80
:1052A000005C004000000000000000000000000062
:1052B00000EB8100C068826913689BB901238900F3
:1052C00001F1804101F5B84113820B6823F490434A
:1052D00023F0700383F4405343F4004343F080030E
:1052E0000B607047408A0344013BB3FBF0F3E6E7F1
:1052F00000EB810010B50C46C1684B690A8A18683A
:105300009968824228BF024620461A61FFF778FD5D
:10531000A10001F1804101F5B8410B6823F4F0438D
:1053200023F0400383F0300343F4004343F0800351
:105330000B6010BD00000000000000000000000035
:10534000890001F1804101F5B8410B6823F49043D5
:1053500023F0700383F4805343F4004343F080034D
:105360000B6070470000000000000000000000001B
:10537000890001F1804101F5B8410B6823F4F04345
:1053800023F0400383F0100343F4004343F0800311
:105390000B607047000000000000000000000000EB
:1053A000890001F1804101F5B8410B6803F44053D5
:1053B000B3F5405F09D00B6823F4F04323F04003BA
:1053C00043F4204343F080030B607047000000006B
:1053D000890001F1804101F5B8410B6803F0300309
:1053E000302B0BD00B6823F4F04323F0400383F001
:1053F000200343F4004343F080030B607047000038
:10540000FFF70EBC000000000000000000000000DC
:1054100070470000000000000000000000000000D5
:1054200070B4860746D0541E002A41D0CAB2034643
:1054300002E014F1FF343BD303F8012B9D07F8D1B0
:10544000032C2ED9CDB245EA05250F2C45EA05459A
:1054500019D9264603F11002103E0F2E42F8105CB7
:1054600042F80C5C42F8085C42F8045C02F110025D
:10547000F2D8A4F1100222F00F0204F00F0410324F
:10548000032C13440DD91E462246043A032A46F83B
:10549000045BFAD8221F22F003020432134404F002
:1054A00003042CB1C9B21C4403F8011B9C42FBD17C
:1054B00070BC704714460346C2E700BF00000000FE
:1054C000024B13B1024800F00BB870470000000017
:1054D000F15400080000000000000000000000007F
:1054E000002301461A46184600F032B800000000BA
:1054F00038B50A4C0A4D641BA4100AD004F180434D
:10550000013B05EB8305013C55F804399847002C15
:10551000F9D1BDE8384000F07FB800BF6C01000849
:10552000680100080000000000000000000000000A
:10553000704700BF000000000000000000000000F5
:10554000704700BF000000000000000000000000E5
:105550002DE9F8432C4D0646286898460F4691469B
:10556000FFF7E6FF294B1C68D4F84831002B3ED0EA
:105570005A681F2A1CDC02F1010E76B1012103EBEF
:105580008204C4F88890D3F8880191400843022E21
:10559000C3F88801C4F8088123D00232C3F804E0BC
:1055A000286843F82270FFF7CBFF0020BDE8F8839E
:1055B000174B0BB34FF4C870AFF300800346D8B15C
:1055C0000020D4F848114FF0010E586019600246CF
:1055D000C4F84831C3F88801C3F88C01002EDCD030
:1055E000CCE7D3F88C010143C3F88C11D5E704F55F
:1055F000A673C4F84831BBE72868FFF7A1FF4FF056
:10560000FF30BDE8F88300BF680A00207C64000812
:045610000000000096
:04561400F8B500BF26
:04561800F8B500BF22
:10561C000A722F6320303132333435363738394102
:10562C0042434445460A00253031366200626F75AC
:10563C006E6365213A2000253032580003000000CB
:10564C0000000000E109000800000000100000004C
:10565C00DC0A002000000000020000000000000036
:10566C0009000000445700080631FF0974A1537566
:10567C0008150026FF00951009758102C000000076
:10568C001500000074560008030000000000000024
:10569C00010800080000000008000000540B002066
:1056AC0000000000020000000000000009000000E3
:1056BC005D57000805010980A1018502150125B778
:1056CC00190129B7751095018100C0050C0901A1BC
:1056DC000185031501269C0219012A9C027510955F
:1056EC00018100C030000000C05600088600000098
:1056FC000057000809028600050100A032090400C9
:10570C0000010301010009211101000122400007E1
:10571C0005810308000A09040100010300000009C7
:10572C002111010001225100070582030800010923
:10573C0004020001030000000921110100012215DF
:10574C000007058303100001090403000103000096
:10575C000009211101000122300007058403080013
:10576C000A090404000103000000092111010001D1
:10577C00223900070585031000010000030000001A
:10578C0000000000F10B0008000000000800000001
:10579C006C0B002000000000020000000000000064
:1057AC00090000001257000805010906A101750146
:1057BC009508050719E029E71500250181029501D7
:1057CC0075088103950575010508190129059102D4
:1057DC0095017503910395067508150026FF0005C4
:1057EC0007190029FF8100C040000000B4570008D1
:1057FC000300000000000000E10B000800000000A6
:10580C0008000000AC0B00200000000002000000AB
:10581C0000000000090000002B57000805010902D8
:10582C00A1010901A100050919012905150025018E
:10583C0075019505810275039501810305010930F8
:10584C0009311581257F7508950281060938158166
:10585C00257F35004500750895018106050C0A3831
:10586C00021581257F750895018106C0C0000000D6
:10587C005100000028580008030000000000000040
:10588C00D10B00080000000010000000C80B002025
:10589C0000000000020000000000000009000000F1
:1058AC005D57000805010906A1017501950805075A
:1058BC0019E029E7150025018102950575010508F8
:1058CC0019012905910295017503910395787501CC
:1058DC00150025010507190029778102C000000079
:1058EC0039000000B058000812000000FC580008F5
:1058FC001201000200000040EDFE64640100010290
:10590C0003012203430068006900620069004F0034
:10591C005300200051004D004B0020007400650026
:10592C0073007400040309040C0354004D004B0075
:10593C002000C60004000000305900080C000000D4
:10594C0034590008220000000E590008160000000F
:10595C0003060020D10A000851070008410800087E
:10596C00010C000855534220636F6E6669677572AF
:10597C0065642E0A004B6579626F617264207374E2
:10598C006172742E0A005B735D00F1A1048A02F04F
:10599C00000000005000000052000000E500000074
:1059AC00000000004F00000000000000000000009C
:1059BC0000000000510000002C000000000000005E
:1059CC000000000000002800000031002A00000048
:1059DC000000E40000000000E200012000000000D4
:1059EC0027002D0038000000340033002F00130076
:1059FC0025002E000000360000000E0030000C00C8
:105A0C00260000000000370000000F00000012000C
:105A1C0024002300110010000B000D001C001800C6
:105A2C0021002200050019000A00090017001500CA
:105A3C002000E00000000600000007000000080045
:105A4C001F000000E1001B000000160039001A00C6
:105A5C001E00000000001D00290004002B00140093
:105A6C000000E000000000200000E3000000000047
:105A7C00000000004A0000004B0000000100000084
:105A8C00000000004D0000000000000000000000BD
:105A9C00000000004E0000000100000000000000AB
:105AAC000000000000002800000049004C0000002D
:105ABC000000005C0000000001000100000000007C
:105ACC00430044000100000034003300470046004E
